{
  "_format": "hh-sol-artifact-1",
  "contractName": "Marketplace",
  "sourceName": "src/backend/contracts/Marketplace.sol",
  "abi": [
    {
      "inputs": [
        {
          "internalType": "uint256",
          "name": "_feePercent",
          "type": "uint256"
        }
      ],
      "stateMutability": "nonpayable",
      "type": "constructor"
    },
    {
      "anonymous": false,
      "inputs": [
        {
          "indexed": false,
          "internalType": "uint256",
          "name": "itemId",
          "type": "uint256"
        },
        {
          "indexed": true,
          "internalType": "address",
          "name": "nft",
          "type": "address"
        },
        {
          "indexed": false,
          "internalType": "uint256",
          "name": "tokenId",
          "type": "uint256"
        },
        {
          "indexed": false,
          "internalType": "uint256",
          "name": "price",
          "type": "uint256"
        },
        {
          "indexed": true,
          "internalType": "address",
          "name": "seller",
          "type": "address"
        },
        {
          "indexed": true,
          "internalType": "address",
          "name": "buyer",
          "type": "address"
        }
      ],
      "name": "Bought",
      "type": "event"
    },
    {
      "anonymous": false,
      "inputs": [
        {
          "indexed": false,
          "internalType": "uint256",
          "name": "itemId",
          "type": "uint256"
        },
        {
          "indexed": true,
          "internalType": "address",
          "name": "nft",
          "type": "address"
        },
        {
          "indexed": false,
          "internalType": "uint256",
          "name": "tokenId",
          "type": "uint256"
        },
        {
          "indexed": false,
          "internalType": "uint256",
          "name": "price",
          "type": "uint256"
        },
        {
          "indexed": true,
          "internalType": "address",
          "name": "seller",
          "type": "address"
        }
      ],
      "name": "Offered",
      "type": "event"
    },
    {
      "inputs": [],
      "name": "feeAccount",
      "outputs": [
        {
          "internalType": "address payable",
          "name": "",
          "type": "address"
        }
      ],
      "stateMutability": "view",
      "type": "function"
    },
    {
      "inputs": [],
      "name": "feePercent",
      "outputs": [
        {
          "internalType": "uint256",
          "name": "",
          "type": "uint256"
        }
      ],
      "stateMutability": "view",
      "type": "function"
    },
    {
      "inputs": [
        {
          "internalType": "uint256",
          "name": "_itemId",
          "type": "uint256"
        }
      ],
      "name": "getTotalPrice",
      "outputs": [
        {
          "internalType": "uint256",
          "name": "",
          "type": "uint256"
        }
      ],
      "stateMutability": "view",
      "type": "function"
    },
    {
      "inputs": [],
      "name": "itemCount",
      "outputs": [
        {
          "internalType": "uint256",
          "name": "",
          "type": "uint256"
        }
      ],
      "stateMutability": "view",
      "type": "function"
    },
    {
      "inputs": [
        {
          "internalType": "uint256",
          "name": "",
          "type": "uint256"
        }
      ],
      "name": "items",
      "outputs": [
        {
          "internalType": "uint256",
          "name": "itemId",
          "type": "uint256"
        },
        {
          "internalType": "contract IERC721",
          "name": "nft",
          "type": "address"
        },
        {
          "internalType": "uint256",
          "name": "tokenId",
          "type": "uint256"
        },
        {
          "internalType": "uint256",
          "name": "price",
          "type": "uint256"
        },
        {
          "internalType": "address payable",
          "name": "seller",
          "type": "address"
        },
        {
          "internalType": "bool",
          "name": "sold",
          "type": "bool"
        }
      ],
      "stateMutability": "view",
      "type": "function"
    },
    {
      "inputs": [
        {
          "internalType": "contract IERC721",
          "name": "_nft",
          "type": "address"
        },
        {
          "internalType": "uint256",
          "name": "_tokenId",
          "type": "uint256"
        },
        {
          "internalType": "uint256",
          "name": "_price",
          "type": "uint256"
        }
      ],
      "name": "makeItem",
      "outputs": [],
      "stateMutability": "nonpayable",
      "type": "function"
    },
    {
      "inputs": [
        {
          "internalType": "uint256",
          "name": "_itemId",
          "type": "uint256"
        }
      ],
      "name": "purchaseItem",
      "outputs": [],
      "stateMutability": "payable",
      "type": "function"
    }
  ],
  "bytecode": "0x60c060405234801561001057600080fd5b506040516110ec3803806110ec83398181016040528101906100329190610094565b60016000819055503373ffffffffffffffffffffffffffffffffffffffff1660808173ffffffffffffffffffffffffffffffffffffffff1660601b815250508060a08181525050506100de565b60008151905061008e816100c7565b92915050565b6000602082840312156100a657600080fd5b60006100b48482850161007f565b91505092915050565b6000819050919050565b6100d0816100bd565b81146100db57600080fd5b50565b60805160601c60a051610fdf61010d600039600081816101e60152610297015260006101bc0152610fdf6000f3fe6080604052600436106100705760003560e01c8063bfb231d21161004e578063bfb231d2146100f6578063ca7dd37514610138578063d38ea5bf14610175578063fa00afc71461019157610070565b806365e17c9d146100755780636bfb0d01146100a05780637fd6f15c146100cb575b600080fd5b34801561008157600080fd5b5061008a6101ba565b6040516100979190610aba565b60405180910390f35b3480156100ac57600080fd5b506100b56101de565b6040516100c29190610bac565b60405180910390f35b3480156100d757600080fd5b506100e06101e4565b6040516100ed9190610bac565b60405180910390f35b34801561010257600080fd5b5061011d60048036038101906101189190610997565b610208565b60405161012f96959493929190610bc7565b60405180910390f35b34801561014457600080fd5b5061015f600480360381019061015a9190610997565b610291565b60405161016c9190610bac565b60405180910390f35b61018f600480360381019061018a9190610997565b6102f4565b005b34801561019d57600080fd5b506101b860048036038101906101b39190610948565b61064c565b005b7f000000000000000000000000000000000000000000000000000000000000000081565b60015481565b7f000000000000000000000000000000000000000000000000000000000000000081565b60026020528060005260406000206000915090508060000154908060010160009054906101000a900473ffffffffffffffffffffffffffffffffffffffff16908060020154908060030154908060040160009054906101000a900473ffffffffffffffffffffffffffffffffffffffff16908060040160149054906101000a900460ff16905086565b600060647f000000000000000000000000000000000000000000000000000000000000000060646102c29190610c70565b60026000858152602001908152602001600020600301546102e39190610cf7565b6102ed9190610cc6565b9050919050565b6002600054141561033a576040517f08c379a000000000000000000000000000000000000000000000000000000000815260040161033190610b8c565b60405180910390fd5b6002600081905550600061034d82610291565b9050600060026000848152602001908152602001600020905060008311801561037857506001548311155b6103b7576040517f08c379a00000000000000000000000000000000000000000000000000000000081526004016103ae90610b4c565b60405180910390fd5b813410156103fa576040517f08c379a00000000000000000000000000000000000000000000000000000000081526004016103f190610b6c565b60405180910390fd5b8060040160149054906101000a900460ff161561044c576040517f08c379a000000000000000000000000000000000000000000000000000000000815260040161044390610b0c565b60405180910390fd5b8060040160009054906101000a900473ffffffffffffffffffffffffffffffffffffffff1673ffffffffffffffffffffffffffffffffffffffff166108fc82600301549081150290604051600060405180830381858888f193505050501580156104ba573d6000803e3d6000fd5b5060018160040160146101000a81548160ff0219169083151502179055508060010160009054906101000a900473ffffffffffffffffffffffffffffffffffffffff1673ffffffffffffffffffffffffffffffffffffffff166323b872dd303384600201546040518463ffffffff1660e01b815260040161053d93929190610ad5565b600060405180830381600087803b15801561055757600080fd5b505af115801561056b573d6000803e3d6000fd5b505050503373ffffffffffffffffffffffffffffffffffffffff168160040160009054906101000a900473ffffffffffffffffffffffffffffffffffffffff1673ffffffffffffffffffffffffffffffffffffffff168260010160009054906101000a900473ffffffffffffffffffffffffffffffffffffffff1673ffffffffffffffffffffffffffffffffffffffff167f8b4c9c8a607d67b321582dd8461041b1dc2ceeca70c8b7f37f8e02095cf2e76d868560020154866003015460405161063793929190610c28565b60405180910390a45050600160008190555050565b60026000541415610692576040517f08c379a000000000000000000000000000000000000000000000000000000000815260040161068990610b8c565b60405180910390fd5b6002600081905550600081116106dd576040517f08c379a00000000000000000000000000000000000000000000000000000000081526004016106d490610b2c565b60405180910390fd5b600160008154809291906106f090610de1565b91905055508273ffffffffffffffffffffffffffffffffffffffff166323b872dd3330856040518463ffffffff1660e01b815260040161073293929190610ad5565b600060405180830381600087803b15801561074c57600080fd5b505af1158015610760573d6000803e3d6000fd5b505050506040518060c0016040528060015481526020018473ffffffffffffffffffffffffffffffffffffffff1681526020018381526020018281526020013373ffffffffffffffffffffffffffffffffffffffff168152602001600015158152506002600060015481526020019081526020016000206000820151816000015560208201518160010160006101000a81548173ffffffffffffffffffffffffffffffffffffffff021916908373ffffffffffffffffffffffffffffffffffffffff160217905550604082015181600201556060820151816003015560808201518160040160006101000a81548173ffffffffffffffffffffffffffffffffffffffff021916908373ffffffffffffffffffffffffffffffffffffffff16021790555060a08201518160040160146101000a81548160ff0219169083151502179055509050503373ffffffffffffffffffffffffffffffffffffffff168373ffffffffffffffffffffffffffffffffffffffff167f655a0cf9c8db81512be9a76dc1c5ae5380b8816ce6ad659cd61b715e2999d59a600154858560405161090993929190610c28565b60405180910390a36001600081905550505050565b60008135905061092d81610f7b565b92915050565b60008135905061094281610f92565b92915050565b60008060006060848603121561095d57600080fd5b600061096b8682870161091e565b935050602061097c86828701610933565b925050604061098d86828701610933565b9150509250925092565b6000602082840312156109a957600080fd5b60006109b784828501610933565b91505092915050565b6109c981610d63565b82525050565b6109d881610d51565b82525050565b6109e781610d75565b82525050565b6109f681610dbd565b82525050565b6000610a09601183610c5f565b9150610a1482610e88565b602082019050919050565b6000610a2c601f83610c5f565b9150610a3782610eb1565b602082019050919050565b6000610a4f601283610c5f565b9150610a5a82610eda565b602082019050919050565b6000610a72602c83610c5f565b9150610a7d82610f03565b604082019050919050565b6000610a95601f83610c5f565b9150610aa082610f52565b602082019050919050565b610ab481610db3565b82525050565b6000602082019050610acf60008301846109c0565b92915050565b6000606082019050610aea60008301866109cf565b610af760208301856109cf565b610b046040830184610aab565b949350505050565b60006020820190508181036000830152610b25816109fc565b9050919050565b60006020820190508181036000830152610b4581610a1f565b9050919050565b60006020820190508181036000830152610b6581610a42565b9050919050565b60006020820190508181036000830152610b8581610a65565b9050919050565b60006020820190508181036000830152610ba581610a88565b9050919050565b6000602082019050610bc16000830184610aab565b92915050565b600060c082019050610bdc6000830189610aab565b610be960208301886109ed565b610bf66040830187610aab565b610c036060830186610aab565b610c1060808301856109c0565b610c1d60a08301846109de565b979650505050505050565b6000606082019050610c3d6000830186610aab565b610c4a6020830185610aab565b610c576040830184610aab565b949350505050565b600082825260208201905092915050565b6000610c7b82610db3565b9150610c8683610db3565b9250827fffffffffffffffffffffffffffffffffffffffffffffffffffffffffffffffff03821115610cbb57610cba610e2a565b5b828201905092915050565b6000610cd182610db3565b9150610cdc83610db3565b925082610cec57610ceb610e59565b5b828204905092915050565b6000610d0282610db3565b9150610d0d83610db3565b9250817fffffffffffffffffffffffffffffffffffffffffffffffffffffffffffffffff0483118215151615610d4657610d45610e2a565b5b828202905092915050565b6000610d5c82610d93565b9050919050565b6000610d6e82610d93565b9050919050565b60008115159050919050565b6000610d8c82610d51565b9050919050565b600073ffffffffffffffffffffffffffffffffffffffff82169050919050565b6000819050919050565b6000610dc882610dcf565b9050919050565b6000610dda82610d93565b9050919050565b6000610dec82610db3565b91507fffffffffffffffffffffffffffffffffffffffffffffffffffffffffffffffff821415610e1f57610e1e610e2a565b5b600182019050919050565b7f4e487b7100000000000000000000000000000000000000000000000000000000600052601160045260246000fd5b7f4e487b7100000000000000000000000000000000000000000000000000000000600052601260045260246000fd5b7f6974656d20616c726561647920736f6c64000000000000000000000000000000600082015250565b7f5072696365206d7573742062652067726561746572207468616e207a65726f00600082015250565b7f6974656d20646f65736e27742065786973740000000000000000000000000000600082015250565b7f6e6f7420656e6f75676820657468657220746f20636f766572206974656d207060008201527f7269636520616e64206665650000000000000000000000000000000000000000602082015250565b7f5265656e7472616e637947756172643a207265656e7472616e742063616c6c00600082015250565b610f8481610d81565b8114610f8f57600080fd5b50565b610f9b81610db3565b8114610fa657600080fd5b5056fea26469706673582212208beb5e1da4f7186965ee845734b93775f6644080e41ef2c2247a24da21ac4a4c64736f6c63430008040033",
  "linkReferences": {},
  "deployedLinkReferences": {}
}